{
  "contractName": "ExerciseC6C",
  "abi": [
    {
      "inputs": [],
      "payable": false,
      "stateMutability": "nonpayable",
      "type": "constructor"
    },
    {
      "constant": true,
      "inputs": [
        {
          "name": "id",
          "type": "string"
        }
      ],
      "name": "isEmployeeRegistered",
      "outputs": [
        {
          "name": "",
          "type": "bool"
        }
      ],
      "payable": false,
      "stateMutability": "view",
      "type": "function"
    },
    {
      "constant": false,
      "inputs": [
        {
          "name": "id",
          "type": "string"
        },
        {
          "name": "isAdmin",
          "type": "bool"
        },
        {
          "name": "wallet",
          "type": "address"
        }
      ],
      "name": "registerEmployee",
      "outputs": [],
      "payable": false,
      "stateMutability": "nonpayable",
      "type": "function"
    },
    {
      "constant": true,
      "inputs": [
        {
          "name": "id",
          "type": "string"
        }
      ],
      "name": "getEmployeeBonus",
      "outputs": [
        {
          "name": "",
          "type": "uint256"
        }
      ],
      "payable": false,
      "stateMutability": "view",
      "type": "function"
    },
    {
      "constant": false,
      "inputs": [
        {
          "name": "id",
          "type": "string"
        },
        {
          "name": "sales",
          "type": "uint256"
        },
        {
          "name": "bonus",
          "type": "uint256"
        }
      ],
      "name": "updateEmployee",
      "outputs": [],
      "payable": false,
      "stateMutability": "nonpayable",
      "type": "function"
    }
  ],
  "bytecode": "0x608060405234801561001057600080fd5b50336000806101000a81548173ffffffffffffffffffffffffffffffffffffffff021916908373ffffffffffffffffffffffffffffffffffffffff1602179055506108f7806100606000396000f300608060405260043610610062576000357c0100000000000000000000000000000000000000000000000000000000900463ffffffff168063228f25dc1461006757806356b35dd5146100ce578063ea20f20a1461011d578063f6f2dfcb14610170575b600080fd5b34801561007357600080fd5b506100cc600480360381019080803590602001908201803590602001919091929391929390803515159060200190929190803573ffffffffffffffffffffffffffffffffffffffff1690602001909291905050506101bf565b005b3480156100da57600080fd5b5061011b6004803603810190808035906020019082018035906020019190919293919293908035906020019092919080359060200190929190505050610491565b005b34801561012957600080fd5b506101566004803603810190808035906020019082018035906020019190919293919293905050506106d3565b604051808215151515815260200191505060405180910390f35b34801561017c57600080fd5b506101a9600480360381019080803590602001908201803590602001919091929391929390505050610713565b6040518082815260200191505060405180910390f35b6000809054906101000a900473ffffffffffffffffffffffffffffffffffffffff1673ffffffffffffffffffffffffffffffffffffffff163373ffffffffffffffffffffffffffffffffffffffff16141515610283576040517f08c379a000000000000000000000000000000000000000000000000000000000815260040180806020018281038252601c8152602001807f43616c6c6572206973206e6f7420636f6e7472616374206f776e65720000000081525060200191505060405180910390fd5b6001848460405180838380828437820191505092505050908152602001604051809103902060010160009054906101000a900460ff1615151561032e576040517f08c379a000000000000000000000000000000000000000000000000000000000815260040180806020018281038252601f8152602001807f456d706c6f79656520697320616c726561647920726567697374657265642e0081525060200191505060405180910390fd5b60c06040519081016040528085858080601f0160208091040260200160405190810160405280939291908181526020018383808284378201915050505050508152602001600115158152602001831515815260200160008152602001600081526020018273ffffffffffffffffffffffffffffffffffffffff168152506001858560405180838380828437820191505092505050908152602001604051809103902060008201518160000190805190602001906103ec929190610826565b5060208201518160010160006101000a81548160ff02191690831515021790555060408201518160010160016101000a81548160ff021916908315150217905550606082015181600201556080820151816003015560a08201518160040160006101000a81548173ffffffffffffffffffffffffffffffffffffffff021916908373ffffffffffffffffffffffffffffffffffffffff16021790555090505050505050565b6000809054906101000a900473ffffffffffffffffffffffffffffffffffffffff1673ffffffffffffffffffffffffffffffffffffffff163373ffffffffffffffffffffffffffffffffffffffff16141515610555576040517f08c379a000000000000000000000000000000000000000000000000000000000815260040180806020018281038252601c8152602001807f43616c6c6572206973206e6f7420636f6e7472616374206f776e65720000000081525060200191505060405180910390fd5b6001848460405180838380828437820191505092505050908152602001604051809103902060010160009054906101000a900460ff1615156105ff576040517f08c379a000000000000000000000000000000000000000000000000000000000815260040180806020018281038252601b8152602001807f456d706c6f796565206973206e6f7420726567697374657265642e000000000081525060200191505060405180910390fd5b61063a82600186866040518083838082843782019150509250505090815260200160405180910390206002015461080a90919063ffffffff16565b60018585604051808383808284378201915050925050509081526020016040518091039020600201819055506106a181600186866040518083838082843782019150509250505090815260200160405180910390206003015461080a90919063ffffffff16565b600185856040518083838082843782019150509250505090815260200160405180910390206003018190555050505050565b60006001838360405180838380828437820191505092505050908152602001604051809103902060010160009054906101000a900460ff16905092915050565b60008060009054906101000a900473ffffffffffffffffffffffffffffffffffffffff1673ffffffffffffffffffffffffffffffffffffffff163373ffffffffffffffffffffffffffffffffffffffff161415156107d9576040517f08c379a000000000000000000000000000000000000000000000000000000000815260040180806020018281038252601c8152602001807f43616c6c6572206973206e6f7420636f6e7472616374206f776e65720000000081525060200191505060405180910390fd5b6001838360405180838380828437820191505092505050908152602001604051809103902060030154905092915050565b6000818301905082811015151561081d57fe5b80905092915050565b828054600181600116156101000203166002900490600052602060002090601f016020900481019282601f1061086757805160ff1916838001178555610895565b82800160010185558215610895579182015b82811115610894578251825591602001919060010190610879565b5b5090506108a291906108a6565b5090565b6108c891905b808211156108c45760008160009055506001016108ac565b5090565b905600a165627a7a72305820041e20272eaeb30669982cd0d3b130129bcc0437fe135763bb91639bf92df8770029",
  "source": "pragma solidity ^0.4.25;\n\n// It's important to avoid vulnerabilities due to numeric overflow bugs\n// OpenZeppelin's SafeMath library, when used correctly, protects agains such bugs\n// More info: https://www.nccgroup.trust/us/about-us/newsroom-and-events/blog/2018/november/smart-contract-insecurity-bad-arithmetic/\n\nimport \"../../node_modules/openzeppelin-solidity/contracts/math/SafeMath.sol\";\n\n\ncontract ExerciseC6C {\n    using SafeMath for uint256; // Allow SafeMath functions to be called for all uint256 types (similar to \"prototype\" in Javascript)\n\n    /********************************************************************************************/\n    /*                                       DATA VARIABLES                                     */\n    /********************************************************************************************/\n\n    struct Profile {\n        string id;\n        bool isRegistered;\n        bool isAdmin;\n        uint256 sales;\n        uint256 bonus;\n        address wallet;\n    }\n\n    address private contractOwner;              // Account used to deploy contract\n    mapping(string => Profile) employees;      // Mapping for storing employees\n\n    /********************************************************************************************/\n    /*                                       EVENT DEFINITIONS                                  */\n    /********************************************************************************************/\n\n    // No events\n\n    /**\n    * @dev Constructor\n    *      The deploying account becomes contractOwner\n    */\n    constructor\n                                (\n                                )\n                                public\n    {\n        contractOwner = msg.sender;\n    }\n\n    /********************************************************************************************/\n    /*                                       FUNCTION MODIFIERS                                 */\n    /********************************************************************************************/\n\n    // Modifiers help avoid duplication of code. They are typically used to validate something\n    // before a function is allowed to be executed.\n\n    /**\n    * @dev Modifier that requires the \"ContractOwner\" account to be the function caller\n    */\n    modifier requireContractOwner()\n    {\n        require(msg.sender == contractOwner, \"Caller is not contract owner\");\n        _;\n    }\n\n    /********************************************************************************************/\n    /*                                       UTILITY FUNCTIONS                                  */\n    /********************************************************************************************/\n\n   /**\n    * @dev Check if an employee is registered\n    *\n    * @return A bool that indicates if the employee is registered\n    */\n    function isEmployeeRegistered\n                            (\n                                string id\n                            )\n                            external\n                            view\n                            returns(bool)\n    {\n        return employees[id].isRegistered;\n    }\n\n    /********************************************************************************************/\n    /*                                     SMART CONTRACT FUNCTIONS                             */\n    /********************************************************************************************/\n\n    function registerEmployee\n                                (\n                                    string id,\n                                    bool isAdmin,\n                                    address wallet\n                                )\n                                external\n                                requireContractOwner\n    {\n        require(!employees[id].isRegistered, \"Employee is already registered.\");\n\n        employees[id] = Profile({\n                                        id: id,\n                                        isRegistered: true,\n                                        isAdmin: isAdmin,\n                                        sales: 0,\n                                        bonus: 0,\n                                        wallet: wallet\n                                });\n    }\n\n    function getEmployeeBonus\n                            (\n                                string id\n                            )\n                            external\n                            view\n                            requireContractOwner\n                            returns(uint256)\n    {\n        return employees[id].bonus;\n    }\n\n    function updateEmployee\n                                (\n                                    string id,\n                                    uint256 sales,\n                                    uint256 bonus\n\n                                )\n                                external\n                                requireContractOwner\n    {\n        require(employees[id].isRegistered, \"Employee is not registered.\");\n\n        employees[id].sales = employees[id].sales.add(sales);\n        employees[id].bonus = employees[id].bonus.add(bonus);\n\n    }\n\n\n\n}\n",
  "sourcePath": "/Users/admin/github/BCND-C6-Exercises/contracts/ExerciseC6C/ExerciseC6C.sol",
  "compiler": {
    "name": "solc",
    "version": "0.4.25+commit.59dbf8f1.Emscripten.clang"
  },
  "schemaVersion": "2.0.2",
  "updatedAt": "2019-05-22T12:54:22.363Z"
}