{
  "contractName": "ExerciseC6C",
  "abi": [
    {
      "constant": false,
      "inputs": [
        {
          "name": "id",
          "type": "string"
        },
        {
          "name": "sales",
          "type": "uint256"
        },
        {
          "name": "bonus",
          "type": "uint256"
        }
      ],
      "name": "updateEmployee",
      "outputs": [],
      "payable": false,
      "stateMutability": "nonpayable",
      "type": "function"
    }
  ],
  "bytecode": "0x608060405234801561001057600080fd5b5060c28061001f6000396000f300608060405260043610603f576000357c0100000000000000000000000000000000000000000000000000000000900463ffffffff16806356b35dd5146044575b600080fd5b348015604f57600080fd5b50608e60048036038101908080359060200190820180359060200191909192939192939080359060200190929190803590602001909291905050506090565b005b505050505600a165627a7a72305820b18bf513b172dbdb8c73aafc7ec519b061c155b993e48280ba8e459e0091c50f0029",
  "source": "pragma solidity ^0.4.25;\n\n// It's important to avoid vulnerabilities due to numeric overflow bugs\n// OpenZeppelin's SafeMath library, when used correctly, protects agains such bugs\n// More info: https://www.nccgroup.trust/us/about-us/newsroom-and-events/blog/2018/november/smart-contract-insecurity-bad-arithmetic/\n\nimport \"../../node_modules/openzeppelin-solidity/contracts/math/SafeMath.sol\";\n\n\n\ncontract ExerciseC6CApp  {\n    using SafeMath for uint256; // Allow SafeMath functions to be called for all uint256 types (similar to \"prototype\" in Javascript)\n\n\n    address private contractOwner;\n    ExerciseC6C exerciseC6C;             // Account used to deploy contract\n\n    modifier requireContractOwner()\n    {\n        require(msg.sender == contractOwner, \"Caller is not contract owner\");\n        _;\n    }\n\n    constructor\n                                (address dataContract) public\n    {\n        contractOwner = msg.sender;\n        exerciseC6C = ExerciseC6C(dataContract);\n\n    }\n\n    function calculateBonus\n                            (\n                                uint256 sales\n                            )\n                            internal\n                            view\n                            requireContractOwner\n                            returns(uint256)\n    {\n        if (sales < 100) {\n            return sales.mul(5).div(100);\n        }\n        else if (sales < 500) {\n            return sales.mul(7).div(100);\n        }\n        else {\n            return sales.mul(10).div(100);\n        }\n    }\n\n    function addSale\n                                (\n                                    string id,\n                                    uint256 amount\n                                )\n                                external\n                                requireContractOwner\n    {\n        exerciseC6C.updateEmployee(\n                        id,\n                        amount,\n                        calculateBonus(amount)\n        );\n    }\n\n\n\n}\n\n  contract ExerciseC6C {\n\n    function updateEmployee\n                                (\n                                    string id,\n                                    uint256 sales,\n                                    uint256 bonus\n\n                                )\n                                external\n\n    {\n\n    }\n  }\n",
  "sourcePath": "/Users/admin/github/BCND-C6-Exercises/contracts/ExerciseC6C/ExerciseC6CApp.sol",
  "compiler": {
    "name": "solc",
    "version": "0.4.25+commit.59dbf8f1.Emscripten.clang"
  },
  "schemaVersion": "2.0.2",
  "updatedAt": "2019-05-22T13:44:03.388Z"
}